{"contracts/GumbuoPresale.sol":{"GumbuoPresale":{"abi":[{"inputs":[],"name":"buy","outputs":[],"stateMutability":"payable","type":"function"},{"inputs":[],"name":"gmbPerEth","outputs":[{"internalType":"uint256","name":"","type":"uint256"}],"stateMutability":"view","type":"function"}],"evm":{"bytecode":{"linkReferences":{},"object":"6080604052627ea5e060005534801561001757600080fd5b50610149806100276000396000f3fe6080604052600436106100295760003560e01c8063a6f2ae3a1461002e578063b5ce277c14610038575b600080fd5b610036610060565b005b34801561004457600080fd5b5061004e60005481565b60405190815260200160405180910390f35b6000341161009f5760405162461bcd60e51b81526020600482015260086024820152670a6cadcc8408aa8960c31b604482015260640160405180910390fd5b6000670de0b6b3a7640000600054346100b891906100c6565b6100c291906100f1565b5050565b80820281158282048414176100eb57634e487b7160e01b600052601160045260246000fd5b92915050565b60008261010e57634e487b7160e01b600052601260045260246000fd5b50049056fea2646970667358221220e548218daca29e78225ebfba563ffb3db6c797e50db74637bcf256dd498662aa64736f6c63430008140033","opcodes":"PUSH1 0x80 PUSH1 0x40 MSTORE PUSH3 0x7EA5E0 PUSH1 0x0 SSTORE CALLVALUE DUP1 ISZERO PUSH2 0x17 JUMPI PUSH1 0x0 DUP1 REVERT JUMPDEST POP PUSH2 0x149 DUP1 PUSH2 0x27 PUSH1 0x0 CODECOPY PUSH1 0x0 RETURN INVALID PUSH1 0x80 PUSH1 0x40 MSTORE PUSH1 0x4 CALLDATASIZE LT PUSH2 0x29 JUMPI PUSH1 0x0 CALLDATALOAD PUSH1 0xE0 SHR DUP1 PUSH4 0xA6F2AE3A EQ PUSH2 0x2E JUMPI DUP1 PUSH4 0xB5CE277C EQ PUSH2 0x38 JUMPI JUMPDEST PUSH1 0x0 DUP1 REVERT JUMPDEST PUSH2 0x36 PUSH2 0x60 JUMP JUMPDEST STOP JUMPDEST CALLVALUE DUP1 ISZERO PUSH2 0x44 JUMPI PUSH1 0x0 DUP1 REVERT JUMPDEST POP PUSH2 0x4E PUSH1 0x0 SLOAD DUP2 JUMP JUMPDEST PUSH1 0x40 MLOAD SWAP1 DUP2 MSTORE PUSH1 0x20 ADD PUSH1 0x40 MLOAD DUP1 SWAP2 SUB SWAP1 RETURN JUMPDEST PUSH1 0x0 CALLVALUE GT PUSH2 0x9F JUMPI PUSH1 0x40 MLOAD PUSH3 0x461BCD PUSH1 0xE5 SHL DUP2 MSTORE PUSH1 0x20 PUSH1 0x4 DUP3 ADD MSTORE PUSH1 0x8 PUSH1 0x24 DUP3 ADD MSTORE PUSH8 0xA6CADCC8408AA89 PUSH1 0xC3 SHL PUSH1 0x44 DUP3 ADD MSTORE PUSH1 0x64 ADD PUSH1 0x40 MLOAD DUP1 SWAP2 SUB SWAP1 REVERT JUMPDEST PUSH1 0x0 PUSH8 0xDE0B6B3A7640000 PUSH1 0x0 SLOAD CALLVALUE PUSH2 0xB8 SWAP2 SWAP1 PUSH2 0xC6 JUMP JUMPDEST PUSH2 0xC2 SWAP2 SWAP1 PUSH2 0xF1 JUMP JUMPDEST POP POP JUMP JUMPDEST DUP1 DUP3 MUL DUP2 ISZERO DUP3 DUP3 DIV DUP5 EQ OR PUSH2 0xEB JUMPI PUSH4 0x4E487B71 PUSH1 0xE0 SHL PUSH1 0x0 MSTORE PUSH1 0x11 PUSH1 0x4 MSTORE PUSH1 0x24 PUSH1 0x0 REVERT JUMPDEST SWAP3 SWAP2 POP POP JUMP JUMPDEST PUSH1 0x0 DUP3 PUSH2 0x10E JUMPI PUSH4 0x4E487B71 PUSH1 0xE0 SHL PUSH1 0x0 MSTORE PUSH1 0x12 PUSH1 0x4 MSTORE PUSH1 0x24 PUSH1 0x0 REVERT JUMPDEST POP DIV SWAP1 JUMP INVALID LOG2 PUSH5 0x6970667358 0x22 SLT KECCAK256 0xE5 BASEFEE 0x21 DUP14 0xAC LOG2 SWAP15 PUSH25 0x225EBFBA563FFB3DB6C797E50DB74637BCF256DD498662AA64 PUSH20 0x6F6C634300081400330000000000000000000000 "},"methodIdentifiers":{"buy()":"a6f2ae3a","gmbPerEth()":"b5ce277c"}}}}}