{
  "_format": "hh-sol-artifact-1",
  "contractName": "GumbuoArena",
  "sourceName": "contracts/GumbuoArena.sol",
  "abi": [
    {
      "inputs": [
        {
          "internalType": "address",
          "name": "_nftContract",
          "type": "address"
        }
      ],
      "stateMutability": "nonpayable",
      "type": "constructor"
    },
    {
      "inputs": [],
      "name": "AlreadyQueued",
      "type": "error"
    },
    {
      "inputs": [],
      "name": "CannotFightYourself",
      "type": "error"
    },
    {
      "inputs": [],
      "name": "InvalidEntryFee",
      "type": "error"
    },
    {
      "inputs": [],
      "name": "NoQueuedFighter",
      "type": "error"
    },
    {
      "inputs": [],
      "name": "NotTokenOwner",
      "type": "error"
    },
    {
      "inputs": [],
      "name": "NotYourQueuedFighter",
      "type": "error"
    },
    {
      "inputs": [],
      "name": "QueueNotExpired",
      "type": "error"
    },
    {
      "inputs": [],
      "name": "TransferFailed",
      "type": "error"
    },
    {
      "anonymous": false,
      "inputs": [
        {
          "indexed": true,
          "internalType": "uint256",
          "name": "battleId",
          "type": "uint256"
        },
        {
          "indexed": true,
          "internalType": "address",
          "name": "winner",
          "type": "address"
        },
        {
          "indexed": true,
          "internalType": "address",
          "name": "loser",
          "type": "address"
        },
        {
          "indexed": false,
          "internalType": "uint256",
          "name": "winnerTokenId",
          "type": "uint256"
        },
        {
          "indexed": false,
          "internalType": "uint256",
          "name": "loserTokenId",
          "type": "uint256"
        },
        {
          "indexed": false,
          "internalType": "uint256",
          "name": "prizePool",
          "type": "uint256"
        },
        {
          "indexed": false,
          "internalType": "uint256",
          "name": "randomSeed",
          "type": "uint256"
        }
      ],
      "name": "BattleResolved",
      "type": "event"
    },
    {
      "anonymous": false,
      "inputs": [
        {
          "indexed": true,
          "internalType": "address",
          "name": "player",
          "type": "address"
        },
        {
          "indexed": true,
          "internalType": "uint256",
          "name": "tokenId",
          "type": "uint256"
        },
        {
          "indexed": false,
          "internalType": "uint256",
          "name": "timestamp",
          "type": "uint256"
        }
      ],
      "name": "FighterQueued",
      "type": "event"
    },
    {
      "anonymous": false,
      "inputs": [
        {
          "indexed": true,
          "internalType": "address",
          "name": "previousOwner",
          "type": "address"
        },
        {
          "indexed": true,
          "internalType": "address",
          "name": "newOwner",
          "type": "address"
        }
      ],
      "name": "OwnershipTransferred",
      "type": "event"
    },
    {
      "anonymous": false,
      "inputs": [
        {
          "indexed": false,
          "internalType": "address",
          "name": "account",
          "type": "address"
        }
      ],
      "name": "Paused",
      "type": "event"
    },
    {
      "anonymous": false,
      "inputs": [
        {
          "indexed": true,
          "internalType": "address",
          "name": "player",
          "type": "address"
        },
        {
          "indexed": true,
          "internalType": "uint256",
          "name": "tokenId",
          "type": "uint256"
        }
      ],
      "name": "QueueCancelled",
      "type": "event"
    },
    {
      "anonymous": false,
      "inputs": [
        {
          "indexed": false,
          "internalType": "address",
          "name": "account",
          "type": "address"
        }
      ],
      "name": "Unpaused",
      "type": "event"
    },
    {
      "inputs": [],
      "name": "ENTRY_FEE",
      "outputs": [
        {
          "internalType": "uint256",
          "name": "",
          "type": "uint256"
        }
      ],
      "stateMutability": "view",
      "type": "function"
    },
    {
      "inputs": [],
      "name": "QUEUE_TIMEOUT",
      "outputs": [
        {
          "internalType": "uint256",
          "name": "",
          "type": "uint256"
        }
      ],
      "stateMutability": "view",
      "type": "function"
    },
    {
      "inputs": [],
      "name": "cancelQueue",
      "outputs": [],
      "stateMutability": "nonpayable",
      "type": "function"
    },
    {
      "inputs": [],
      "name": "emergencyWithdraw",
      "outputs": [],
      "stateMutability": "nonpayable",
      "type": "function"
    },
    {
      "inputs": [],
      "name": "getQueuedFighter",
      "outputs": [
        {
          "internalType": "address",
          "name": "player",
          "type": "address"
        },
        {
          "internalType": "uint256",
          "name": "tokenId",
          "type": "uint256"
        },
        {
          "internalType": "uint256",
          "name": "timestamp",
          "type": "uint256"
        }
      ],
      "stateMutability": "view",
      "type": "function"
    },
    {
      "inputs": [],
      "name": "hasQueuedFighter",
      "outputs": [
        {
          "internalType": "bool",
          "name": "",
          "type": "bool"
        }
      ],
      "stateMutability": "view",
      "type": "function"
    },
    {
      "inputs": [],
      "name": "nftContract",
      "outputs": [
        {
          "internalType": "contract IGumbuoFighterNFT",
          "name": "",
          "type": "address"
        }
      ],
      "stateMutability": "view",
      "type": "function"
    },
    {
      "inputs": [],
      "name": "owner",
      "outputs": [
        {
          "internalType": "address",
          "name": "",
          "type": "address"
        }
      ],
      "stateMutability": "view",
      "type": "function"
    },
    {
      "inputs": [],
      "name": "pause",
      "outputs": [],
      "stateMutability": "nonpayable",
      "type": "function"
    },
    {
      "inputs": [],
      "name": "paused",
      "outputs": [
        {
          "internalType": "bool",
          "name": "",
          "type": "bool"
        }
      ],
      "stateMutability": "view",
      "type": "function"
    },
    {
      "inputs": [
        {
          "internalType": "uint256",
          "name": "tokenId",
          "type": "uint256"
        },
        {
          "internalType": "bytes32",
          "name": "moveHash",
          "type": "bytes32"
        }
      ],
      "name": "queueFighter",
      "outputs": [],
      "stateMutability": "payable",
      "type": "function"
    },
    {
      "inputs": [],
      "name": "queuedFighter",
      "outputs": [
        {
          "internalType": "address",
          "name": "player",
          "type": "address"
        },
        {
          "internalType": "uint88",
          "name": "tokenId",
          "type": "uint88"
        },
        {
          "internalType": "uint48",
          "name": "timestamp",
          "type": "uint48"
        }
      ],
      "stateMutability": "view",
      "type": "function"
    },
    {
      "inputs": [],
      "name": "renounceOwnership",
      "outputs": [],
      "stateMutability": "nonpayable",
      "type": "function"
    },
    {
      "inputs": [],
      "name": "totalBattles",
      "outputs": [
        {
          "internalType": "uint256",
          "name": "",
          "type": "uint256"
        }
      ],
      "stateMutability": "view",
      "type": "function"
    },
    {
      "inputs": [
        {
          "internalType": "address",
          "name": "newOwner",
          "type": "address"
        }
      ],
      "name": "transferOwnership",
      "outputs": [],
      "stateMutability": "nonpayable",
      "type": "function"
    },
    {
      "inputs": [],
      "name": "unpause",
      "outputs": [],
      "stateMutability": "nonpayable",
      "type": "function"
    }
  ],
  "bytecode": "0x60a060405234801561001057600080fd5b5060405161114538038061114583398101604081905261002f916100b2565b60016000819055805460ff1916905561004733610058565b6001600160a01b03166080526100e2565b600180546001600160a01b03838116610100818102610100600160a81b031985161790945560405193909204169182907f8be0079c531659141344cd1fd0a4f28419497f9722a3daafe3b4186f6b6457e090600090a35050565b6000602082840312156100c457600080fd5b81516001600160a01b03811681146100db57600080fd5b9392505050565b608051611025610120600039600081816102d5015281816104640152818161060f015281816106be01528181610cb30152610d2b01526110256000f3fe6080604052600436106100f35760003560e01c80638da5cb5b1161008a578063d56d229d11610059578063d56d229d146102c3578063db2e21bc146102f7578063f2fde38b1461030c578063f6d361cc1461032c57600080fd5b80638da5cb5b146101ef5780639427dbe114610226578063bd87fb381461029a578063bf1dfb8a146102ad57600080fd5b80636516fa08116100c65780636516fa081461019657806366c5b2cb146101b0578063715018a6146101c55780638456cb59146101da57600080fd5b80633f4ba83a146100f85780634413828c1461010f5780635b0ca0241461014e5780635c975abb14610172575b600080fd5b34801561010457600080fd5b5061010d610345565b005b34801561011b57600080fd5b50610124610357565b604080516001600160a01b0390941684526020840192909252908201526060015b60405180910390f35b34801561015a57600080fd5b5061016461025881565b604051908152602001610145565b34801561017e57600080fd5b5060015460ff165b6040519015158152602001610145565b3480156101a257600080fd5b506004546101869060ff1681565b3480156101bc57600080fd5b5061010d6103a5565b3480156101d157600080fd5b5061010d610598565b3480156101e657600080fd5b5061010d6105aa565b3480156101fb57600080fd5b5060015461010090046001600160a01b03165b6040516001600160a01b039091168152602001610145565b34801561023257600080fd5b50600254600354610265916001600160a01b03811691600160a01b9091046001600160581b03169065ffffffffffff1683565b604080516001600160a01b0390941684526001600160581b03909216602084015265ffffffffffff1690820152606001610145565b61010d6102a8366004610ee3565b6105ba565b3480156102b957600080fd5b5061016460055481565b3480156102cf57600080fd5b5061020e7f000000000000000000000000000000000000000000000000000000000000000081565b34801561030357600080fd5b5061010d610874565b34801561031857600080fd5b5061010d610327366004610f1a565b610973565b34801561033857600080fd5b50610164642e90edd00081565b61034d6109ec565b610355610a4c565b565b6004546000908190819060ff166103745750600092839250829150565b50506002546003546001600160a01b03821693600160a01b9092046001600160581b0316925065ffffffffffff1690565b6103ad610a9e565b60045460ff166103cf5760405162a066d360e01b815260040160405180910390fd5b6002546001600160a01b031633146103fa576040516308bf5b8760e41b815260040160405180910390fd5b600354610412906102589065ffffffffffff16610f54565b42101561043257604051631c06a81360e11b815260040160405180910390fd5b600254604051633cf2abc160e01b8152600160a01b9091046001600160581b03166004820181905260006024830152907f00000000000000000000000000000000000000000000000000000000000000006001600160a01b031690633cf2abc190604401600060405180830381600087803b1580156104b057600080fd5b505af11580156104c4573d6000803e3d6000fd5b505060405160009250339150642e90edd000908381818185875af1925050503d806000811461050f576040519150601f19603f3d011682016040523d82523d6000602084013e610514565b606091505b5050905080610536576040516312171d8360e31b815260040160405180910390fd5b604051829033907fc2c46b30e5527ae9e386238bbb25d9c5e289542312815a1778856b4afec39d0c90600090a35050600280546001600160f81b03191690556003805465ffffffffffff191690556004805460ff191690556103556001600055565b6105a06109ec565b6103556000610af7565b6105b26109ec565b610355610b51565b6105c2610a9e565b6105ca610b8c565b642e90edd00034146105ef57604051636fe6a4c960e01b815260040160405180910390fd5b6040516331a9108f60e11b81526004810183905233906001600160a01b037f00000000000000000000000000000000000000000000000000000000000000001690636352211e90602401602060405180830381865afa158015610656573d6000803e3d6000fd5b505050506040513d601f19601f8201168201806040525081019061067a9190610f6d565b6001600160a01b0316146106a1576040516359dc379f60e01b815260040160405180910390fd5b604051633cf2abc160e01b815260048101839052600160248201527f00000000000000000000000000000000000000000000000000000000000000006001600160a01b031690633cf2abc190604401600060405180830381600087803b15801561070a57600080fd5b505af115801561071e573d6000803e3d6000fd5b505060045460ff1691506107e790505760408051606081018252338082526001600160581b03851660208084018290524265ffffffffffff8116948601859052600280546001600160f81b0319166affffffffffffffffffffff60a01b19861617600160a01b909402939093179092556003805465ffffffffffff19169094179093556004805460ff191660011790559251928352849290917ff04f047cd856c9b44e1cbb42ab7f64721f5a465e9dffccf5c79dbf36924ee927910160405180910390a3610866565b6002546001600160a01b0316330361081257604051632f50dd8760e01b815260040160405180910390fd5b60025461083c906001600160a01b03811690600160a01b90046001600160581b0316338585610bd2565b600280546001600160f81b03191690556003805465ffffffffffff191690556004805460ff191690555b6108706001600055565b5050565b61087c6109ec565b60015460ff166108c45760405162461bcd60e51b815260206004820152600e60248201526d135d5cdd081899481c185d5cd95960921b60448201526064015b60405180910390fd5b4760006108df6001546001600160a01b036101009091041690565b6001600160a01b03168260405160006040518083038185875af1925050503d8060008114610929576040519150601f19603f3d011682016040523d82523d6000602084013e61092e565b606091505b50509050806108705760405162461bcd60e51b815260206004820152601160248201527015da5d1a191c985dd85b0819985a5b1959607a1b60448201526064016108bb565b61097b6109ec565b6001600160a01b0381166109e05760405162461bcd60e51b815260206004820152602660248201527f4f776e61626c653a206e6577206f776e657220697320746865207a65726f206160448201526564647265737360d01b60648201526084016108bb565b6109e981610af7565b50565b6001546001600160a01b036101009091041633146103555760405162461bcd60e51b815260206004820181905260248201527f4f776e61626c653a2063616c6c6572206973206e6f7420746865206f776e657260448201526064016108bb565b610a54610e9a565b6001805460ff191690557f5db9ee0a495bf2e6ff9c91a7834c1ba4fdd244a5e8aa4e537bd38aeae4b073aa335b6040516001600160a01b03909116815260200160405180910390a1565b600260005403610af05760405162461bcd60e51b815260206004820152601f60248201527f5265656e7472616e637947756172643a207265656e7472616e742063616c6c0060448201526064016108bb565b6002600055565b600180546001600160a01b03838116610100818102610100600160a81b031985161790945560405193909204169182907f8be0079c531659141344cd1fd0a4f28419497f9722a3daafe3b4186f6b6457e090600090a35050565b610b59610b8c565b6001805460ff1916811790557f62e78cea01bee320cd4e420270b5ea74000d11b0c9f74754ebdbfc544b05a25833610a81565b60015460ff16156103555760405162461bcd60e51b815260206004820152601060248201526f14185d5cd8589b194e881c185d5cd95960821b60448201526064016108bb565b6000610bdf600143610f8a565b60408051914060208301526bffffffffffffffffffffffff19606089811b821692840192909252605483018890529086901b1660748201526088810184905260a881018390524260c882015260e80160408051601f19818403018152919052805160209091012090506000610c55600283610f9d565b159050600081610c655785610c67565b875b9050600082610c765788610c78565b865b9050600083610c875786610c89565b885b9050600084610c985789610c9a565b875b604051639f96e01760e01b8152600481018c90529091507f00000000000000000000000000000000000000000000000000000000000000006001600160a01b031690639f96e01790602401600060405180830381600087803b158015610cff57600080fd5b505af1158015610d13573d6000803e3d6000fd5b5050604051639f96e01760e01b8152600481018b90527f00000000000000000000000000000000000000000000000000000000000000006001600160a01b03169250639f96e0179150602401600060405180830381600087803b158015610d7957600080fd5b505af1158015610d8d573d6000803e3d6000fd5b505050506000642e90edd0006002610da59190610fbf565b90506000856001600160a01b03168260405160006040518083038185875af1925050503d8060008114610df4576040519150601f19603f3d011682016040523d82523d6000602084013e610df9565b606091505b5050905080610e1b576040516312171d8360e31b815260040160405180910390fd5b6005546040805186815260208101869052908101849052606081018a90526001600160a01b0380881692908916917f5a9cfa0c0fe7f4233350e592c59f60567e34801a34fb01b4a0adc49efbde54cf9060800160405180910390a460058054906000610e8683610fd6565b919050555050505050505050505050505050565b60015460ff166103555760405162461bcd60e51b815260206004820152601460248201527314185d5cd8589b194e881b9bdd081c185d5cd95960621b60448201526064016108bb565b60008060408385031215610ef657600080fd5b50508035926020909101359150565b6001600160a01b03811681146109e957600080fd5b600060208284031215610f2c57600080fd5b8135610f3781610f05565b9392505050565b634e487b7160e01b600052601160045260246000fd5b80820180821115610f6757610f67610f3e565b92915050565b600060208284031215610f7f57600080fd5b8151610f3781610f05565b81810381811115610f6757610f67610f3e565b600082610fba57634e487b7160e01b600052601260045260246000fd5b500690565b8082028115828204841417610f6757610f67610f3e565b600060018201610fe857610fe8610f3e565b506001019056fea2646970667358221220b4615e69bf006ed11b2bc795163bac860dfe7200701e8cc5acb0d53bf8704ea064736f6c63430008140033",
  "linkReferences": {},
  "deployedLinkReferences": {}
}