{
  "_format": "hh-sol-artifact-1",
  "contractName": "GumbuoFighterNFT",
  "sourceName": "contracts/GumbuoFighterNFT.sol",
  "abi": [
    {
      "inputs": [
        {
          "internalType": "string",
          "name": "baseURI",
          "type": "string"
        }
      ],
      "stateMutability": "nonpayable",
      "type": "constructor"
    },
    {
      "inputs": [],
      "name": "InsufficientMintFee",
      "type": "error"
    },
    {
      "inputs": [],
      "name": "InvalidAlienType",
      "type": "error"
    },
    {
      "inputs": [],
      "name": "OnlyArena",
      "type": "error"
    },
    {
      "inputs": [],
      "name": "TokenDoesNotExist",
      "type": "error"
    },
    {
      "inputs": [],
      "name": "TokenInBattle",
      "type": "error"
    },
    {
      "anonymous": false,
      "inputs": [
        {
          "indexed": true,
          "internalType": "address",
          "name": "owner",
          "type": "address"
        },
        {
          "indexed": true,
          "internalType": "address",
          "name": "approved",
          "type": "address"
        },
        {
          "indexed": true,
          "internalType": "uint256",
          "name": "tokenId",
          "type": "uint256"
        }
      ],
      "name": "Approval",
      "type": "event"
    },
    {
      "anonymous": false,
      "inputs": [
        {
          "indexed": true,
          "internalType": "address",
          "name": "owner",
          "type": "address"
        },
        {
          "indexed": true,
          "internalType": "address",
          "name": "operator",
          "type": "address"
        },
        {
          "indexed": false,
          "internalType": "bool",
          "name": "approved",
          "type": "bool"
        }
      ],
      "name": "ApprovalForAll",
      "type": "event"
    },
    {
      "anonymous": false,
      "inputs": [
        {
          "indexed": true,
          "internalType": "address",
          "name": "arenaContract",
          "type": "address"
        }
      ],
      "name": "ArenaContractSet",
      "type": "event"
    },
    {
      "anonymous": false,
      "inputs": [
        {
          "indexed": true,
          "internalType": "uint256",
          "name": "tokenId",
          "type": "uint256"
        }
      ],
      "name": "FighterBurned",
      "type": "event"
    },
    {
      "anonymous": false,
      "inputs": [
        {
          "indexed": true,
          "internalType": "address",
          "name": "owner",
          "type": "address"
        },
        {
          "indexed": true,
          "internalType": "uint256",
          "name": "tokenId",
          "type": "uint256"
        },
        {
          "indexed": false,
          "internalType": "string",
          "name": "alienType",
          "type": "string"
        }
      ],
      "name": "FighterMinted",
      "type": "event"
    },
    {
      "anonymous": false,
      "inputs": [
        {
          "indexed": true,
          "internalType": "address",
          "name": "previousOwner",
          "type": "address"
        },
        {
          "indexed": true,
          "internalType": "address",
          "name": "newOwner",
          "type": "address"
        }
      ],
      "name": "OwnershipTransferred",
      "type": "event"
    },
    {
      "anonymous": false,
      "inputs": [
        {
          "indexed": true,
          "internalType": "address",
          "name": "from",
          "type": "address"
        },
        {
          "indexed": true,
          "internalType": "address",
          "name": "to",
          "type": "address"
        },
        {
          "indexed": true,
          "internalType": "uint256",
          "name": "tokenId",
          "type": "uint256"
        }
      ],
      "name": "Transfer",
      "type": "event"
    },
    {
      "inputs": [],
      "name": "MINT_FEE",
      "outputs": [
        {
          "internalType": "uint256",
          "name": "",
          "type": "uint256"
        }
      ],
      "stateMutability": "view",
      "type": "function"
    },
    {
      "inputs": [
        {
          "internalType": "uint256",
          "name": "",
          "type": "uint256"
        }
      ],
      "name": "alienType",
      "outputs": [
        {
          "internalType": "string",
          "name": "",
          "type": "string"
        }
      ],
      "stateMutability": "view",
      "type": "function"
    },
    {
      "inputs": [
        {
          "internalType": "uint256",
          "name": "",
          "type": "uint256"
        }
      ],
      "name": "alienTypes",
      "outputs": [
        {
          "internalType": "string",
          "name": "",
          "type": "string"
        }
      ],
      "stateMutability": "view",
      "type": "function"
    },
    {
      "inputs": [
        {
          "internalType": "address",
          "name": "to",
          "type": "address"
        },
        {
          "internalType": "uint256",
          "name": "tokenId",
          "type": "uint256"
        }
      ],
      "name": "approve",
      "outputs": [],
      "stateMutability": "nonpayable",
      "type": "function"
    },
    {
      "inputs": [],
      "name": "arenaContract",
      "outputs": [
        {
          "internalType": "address",
          "name": "",
          "type": "address"
        }
      ],
      "stateMutability": "view",
      "type": "function"
    },
    {
      "inputs": [
        {
          "internalType": "address",
          "name": "owner",
          "type": "address"
        }
      ],
      "name": "balanceOf",
      "outputs": [
        {
          "internalType": "uint256",
          "name": "",
          "type": "uint256"
        }
      ],
      "stateMutability": "view",
      "type": "function"
    },
    {
      "inputs": [
        {
          "internalType": "uint256",
          "name": "tokenId",
          "type": "uint256"
        }
      ],
      "name": "burnFighter",
      "outputs": [],
      "stateMutability": "nonpayable",
      "type": "function"
    },
    {
      "inputs": [
        {
          "internalType": "uint256",
          "name": "tokenId",
          "type": "uint256"
        }
      ],
      "name": "getApproved",
      "outputs": [
        {
          "internalType": "address",
          "name": "",
          "type": "address"
        }
      ],
      "stateMutability": "view",
      "type": "function"
    },
    {
      "inputs": [
        {
          "internalType": "uint256",
          "name": "",
          "type": "uint256"
        }
      ],
      "name": "inBattle",
      "outputs": [
        {
          "internalType": "bool",
          "name": "",
          "type": "bool"
        }
      ],
      "stateMutability": "view",
      "type": "function"
    },
    {
      "inputs": [
        {
          "internalType": "address",
          "name": "owner",
          "type": "address"
        },
        {
          "internalType": "address",
          "name": "operator",
          "type": "address"
        }
      ],
      "name": "isApprovedForAll",
      "outputs": [
        {
          "internalType": "bool",
          "name": "",
          "type": "bool"
        }
      ],
      "stateMutability": "view",
      "type": "function"
    },
    {
      "inputs": [
        {
          "internalType": "string",
          "name": "_alienType",
          "type": "string"
        }
      ],
      "name": "mintFighter",
      "outputs": [
        {
          "internalType": "uint256",
          "name": "",
          "type": "uint256"
        }
      ],
      "stateMutability": "payable",
      "type": "function"
    },
    {
      "inputs": [
        {
          "internalType": "uint256",
          "name": "",
          "type": "uint256"
        }
      ],
      "name": "mintTimestamp",
      "outputs": [
        {
          "internalType": "uint256",
          "name": "",
          "type": "uint256"
        }
      ],
      "stateMutability": "view",
      "type": "function"
    },
    {
      "inputs": [],
      "name": "name",
      "outputs": [
        {
          "internalType": "string",
          "name": "",
          "type": "string"
        }
      ],
      "stateMutability": "view",
      "type": "function"
    },
    {
      "inputs": [],
      "name": "owner",
      "outputs": [
        {
          "internalType": "address",
          "name": "",
          "type": "address"
        }
      ],
      "stateMutability": "view",
      "type": "function"
    },
    {
      "inputs": [
        {
          "internalType": "uint256",
          "name": "tokenId",
          "type": "uint256"
        }
      ],
      "name": "ownerOf",
      "outputs": [
        {
          "internalType": "address",
          "name": "",
          "type": "address"
        }
      ],
      "stateMutability": "view",
      "type": "function"
    },
    {
      "inputs": [],
      "name": "renounceOwnership",
      "outputs": [],
      "stateMutability": "nonpayable",
      "type": "function"
    },
    {
      "inputs": [
        {
          "internalType": "address",
          "name": "from",
          "type": "address"
        },
        {
          "internalType": "address",
          "name": "to",
          "type": "address"
        },
        {
          "internalType": "uint256",
          "name": "tokenId",
          "type": "uint256"
        }
      ],
      "name": "safeTransferFrom",
      "outputs": [],
      "stateMutability": "nonpayable",
      "type": "function"
    },
    {
      "inputs": [
        {
          "internalType": "address",
          "name": "from",
          "type": "address"
        },
        {
          "internalType": "address",
          "name": "to",
          "type": "address"
        },
        {
          "internalType": "uint256",
          "name": "tokenId",
          "type": "uint256"
        },
        {
          "internalType": "bytes",
          "name": "data",
          "type": "bytes"
        }
      ],
      "name": "safeTransferFrom",
      "outputs": [],
      "stateMutability": "nonpayable",
      "type": "function"
    },
    {
      "inputs": [
        {
          "internalType": "address",
          "name": "operator",
          "type": "address"
        },
        {
          "internalType": "bool",
          "name": "approved",
          "type": "bool"
        }
      ],
      "name": "setApprovalForAll",
      "outputs": [],
      "stateMutability": "nonpayable",
      "type": "function"
    },
    {
      "inputs": [
        {
          "internalType": "address",
          "name": "_arenaContract",
          "type": "address"
        }
      ],
      "name": "setArenaContract",
      "outputs": [],
      "stateMutability": "nonpayable",
      "type": "function"
    },
    {
      "inputs": [
        {
          "internalType": "string",
          "name": "baseURI",
          "type": "string"
        }
      ],
      "name": "setBaseURI",
      "outputs": [],
      "stateMutability": "nonpayable",
      "type": "function"
    },
    {
      "inputs": [
        {
          "internalType": "uint256",
          "name": "tokenId",
          "type": "uint256"
        },
        {
          "internalType": "bool",
          "name": "_inBattle",
          "type": "bool"
        }
      ],
      "name": "setInBattle",
      "outputs": [],
      "stateMutability": "nonpayable",
      "type": "function"
    },
    {
      "inputs": [
        {
          "internalType": "bytes4",
          "name": "interfaceId",
          "type": "bytes4"
        }
      ],
      "name": "supportsInterface",
      "outputs": [
        {
          "internalType": "bool",
          "name": "",
          "type": "bool"
        }
      ],
      "stateMutability": "view",
      "type": "function"
    },
    {
      "inputs": [],
      "name": "symbol",
      "outputs": [
        {
          "internalType": "string",
          "name": "",
          "type": "string"
        }
      ],
      "stateMutability": "view",
      "type": "function"
    },
    {
      "inputs": [
        {
          "internalType": "uint256",
          "name": "tokenId",
          "type": "uint256"
        }
      ],
      "name": "tokenURI",
      "outputs": [
        {
          "internalType": "string",
          "name": "",
          "type": "string"
        }
      ],
      "stateMutability": "view",
      "type": "function"
    },
    {
      "inputs": [
        {
          "internalType": "address",
          "name": "from",
          "type": "address"
        },
        {
          "internalType": "address",
          "name": "to",
          "type": "address"
        },
        {
          "internalType": "uint256",
          "name": "tokenId",
          "type": "uint256"
        }
      ],
      "name": "transferFrom",
      "outputs": [],
      "stateMutability": "nonpayable",
      "type": "function"
    },
    {
      "inputs": [
        {
          "internalType": "address",
          "name": "newOwner",
          "type": "address"
        }
      ],
      "name": "transferOwnership",
      "outputs": [],
      "stateMutability": "nonpayable",
      "type": "function"
    },
    {
      "inputs": [],
      "name": "withdrawFees",
      "outputs": [],
      "stateMutability": "nonpayable",
      "type": "function"
    }
  ],
  "bytecode": "0x6003610140818152620dcf2f60eb1b6101605260809081526004610180818152633d37b93160e11b6101a05260a0526101c0818152633130b7b160e11b6101e05260c05260076102009081526630b832b634b0b760c91b6102205260e052610240908152636a33643160e01b61026052610100526102c0604052610280918252621e9a5d60ea1b6102a05261012091909152620000a190600b906006620001c8565b50348015620000af57600080fd5b506040516200233638038062002336833981016040819052620000d291620002b5565b6040518060400160405280600e81526020016d23bab6b13ab7902334b3b43a32b960911b8152506040518060400160405280600881526020016723a324a3a42a22a960c11b81525081600090816200012b919062000419565b5060016200013a828262000419565b50505062000157620001516200017260201b60201c565b62000176565b600160075560096200016a828262000419565b5050620004e5565b3390565b600680546001600160a01b038381166001600160a01b0319831681179093556040519116919082907f8be0079c531659141344cd1fd0a4f28419497f9722a3daafe3b4186f6b6457e090600090a35050565b82805482825590600052602060002090810192821562000213579160200282015b8281111562000213578251829062000202908262000419565b5091602001919060010190620001e9565b506200022192915062000225565b5090565b80821115620002215760006200023c828262000246565b5060010162000225565b50805462000254906200038a565b6000825580601f1062000265575050565b601f01602090049060005260206000209081019062000285919062000288565b50565b5b8082111562000221576000815560010162000289565b634e487b7160e01b600052604160045260246000fd5b60006020808385031215620002c957600080fd5b82516001600160401b0380821115620002e157600080fd5b818501915085601f830112620002f657600080fd5b8151818111156200030b576200030b6200029f565b604051601f8201601f19908116603f011681019083821181831017156200033657620003366200029f565b8160405282815288868487010111156200034f57600080fd5b600093505b8284101562000373578484018601518185018701529285019262000354565b600086848301015280965050505050505092915050565b600181811c908216806200039f57607f821691505b602082108103620003c057634e487b7160e01b600052602260045260246000fd5b50919050565b601f8211156200041457600081815260208120601f850160051c81016020861015620003ef5750805b601f850160051c820191505b818110156200041057828155600101620003fb565b5050505b505050565b81516001600160401b038111156200043557620004356200029f565b6200044d816200044684546200038a565b84620003c6565b602080601f8311600181146200048557600084156200046c5750858301515b600019600386901b1c1916600185901b17855562000410565b600085815260208120601f198616915b82811015620004b65788860151825594840194600190910190840162000495565b5085821015620004d55787850151600019600388901b60f8161c191681555b5050505050600190811b01905550565b611e4180620004f56000396000f3fe6080604052600436106101b75760003560e01c806370a08231116100ec578063b88d4fde1161008a578063d7bf81a311610064578063d7bf81a3146104db578063e1f36fa8146104f4578063e985e9c514610521578063f2fde38b1461056a57600080fd5b8063b88d4fde1461047b578063c808b01a1461049b578063c87b56dd146104bb57600080fd5b806395d89b41116100c657806395d89b41146103f65780639f96e0171461040b578063a22cb4651461042b578063a572ba2c1461044b57600080fd5b806370a08231146103a3578063715018a6146103c35780638da5cb5b146103d857600080fd5b8063368e0ed811610159578063476343ee11610133578063476343ee1461032e57806355f804b3146103435780636352211e146103635780636c592aee1461038357600080fd5b8063368e0ed8146102ce5780633cf2abc1146102ee57806342842e0e1461030e57600080fd5b8063082a8c4e11610195578063082a8c4e1461024b578063095ea7b31461026b57806323b872dd1461028d5780632c3f1bf7146102ad57600080fd5b806301ffc9a7146101bc57806306fdde03146101f1578063081812fc14610213575b600080fd5b3480156101c857600080fd5b506101dc6101d736600461178f565b61058a565b60405190151581526020015b60405180910390f35b3480156101fd57600080fd5b506102066105dc565b6040516101e891906117f9565b34801561021f57600080fd5b5061023361022e36600461180c565b61066e565b6040516001600160a01b0390911681526020016101e8565b34801561025757600080fd5b50600a54610233906001600160a01b031681565b34801561027757600080fd5b5061028b61028636600461183c565b610695565b005b34801561029957600080fd5b5061028b6102a8366004611866565b6107af565b6102c06102bb36600461192e565b6107e0565b6040519081526020016101e8565b3480156102da57600080fd5b5061028b6102e9366004611977565b6108cd565b3480156102fa57600080fd5b5061028b6103093660046119a2565b61091f565b34801561031a57600080fd5b5061028b610329366004611866565b61096a565b34801561033a57600080fd5b5061028b610985565b34801561034f57600080fd5b5061028b61035e36600461192e565b610a83565b34801561036f57600080fd5b5061023361037e36600461180c565b610a9b565b34801561038f57600080fd5b5061020661039e36600461180c565b610afb565b3480156103af57600080fd5b506102c06103be366004611977565b610b95565b3480156103cf57600080fd5b5061028b610c1b565b3480156103e457600080fd5b506006546001600160a01b0316610233565b34801561040257600080fd5b50610206610c2d565b34801561041757600080fd5b5061028b61042636600461180c565b610c3c565b34801561043757600080fd5b5061028b6104463660046119ce565b610cf9565b34801561045757600080fd5b506101dc61046636600461180c565b600e6020526000908152604090205460ff1681565b34801561048757600080fd5b5061028b6104963660046119f8565b610d04565b3480156104a757600080fd5b506102066104b636600461180c565b610d3c565b3480156104c757600080fd5b506102066104d636600461180c565b610d67565b3480156104e757600080fd5b506102c064174876e80081565b34801561050057600080fd5b506102c061050f36600461180c565b600d6020526000908152604090205481565b34801561052d57600080fd5b506101dc61053c366004611a74565b6001600160a01b03918216600090815260056020908152604080832093909416825291909152205460ff1690565b34801561057657600080fd5b5061028b610585366004611977565b610e01565b60006001600160e01b031982166380ac58cd60e01b14806105bb57506001600160e01b03198216635b5e139f60e01b145b806105d657506301ffc9a760e01b6001600160e01b03198316145b92915050565b6060600080546105eb90611a9e565b80601f016020809104026020016040519081016040528092919081815260200182805461061790611a9e565b80156106645780601f1061063957610100808354040283529160200191610664565b820191906000526020600020905b81548152906001019060200180831161064757829003601f168201915b5050505050905090565b600061067982610e77565b506000908152600460205260409020546001600160a01b031690565b60006106a082610a9b565b9050806001600160a01b0316836001600160a01b0316036107125760405162461bcd60e51b815260206004820152602160248201527f4552433732313a20617070726f76616c20746f2063757272656e74206f776e656044820152603960f91b60648201526084015b60405180910390fd5b336001600160a01b038216148061072e575061072e813361053c565b6107a05760405162461bcd60e51b815260206004820152603d60248201527f4552433732313a20617070726f76652063616c6c6572206973206e6f7420746f60448201527f6b656e206f776e6572206f7220617070726f76656420666f7220616c6c0000006064820152608401610709565b6107aa8383610ed6565b505050565b6107b93382610f44565b6107d55760405162461bcd60e51b815260040161070990611ad8565b6107aa838383610fc3565b60006107ea611134565b64174876e80034101561080f57604051623d6c2560e81b815260040160405180910390fd5b6108188261118d565b61083557604051634626cb4160e01b815260040160405180910390fd5b600880546000918261084683611b25565b91905055905061085633826111fe565b6000818152600c6020526040902061086e8482611b9a565b506000818152600d60205260409081902042905551819033907fcdf42872da215c99402d3d43ef467f8666d119076d962bcf221888b8165509fc906108b49087906117f9565b60405180910390a390506108c86001600755565b919050565b6108d5611218565b600a80546001600160a01b0319166001600160a01b0383169081179091556040517fda05b298405d30faa06fd33fd0f66be4c5b369d0617617baf90412c4bb25fcea90600090a250565b600a546001600160a01b0316331461094a5760405163c603835b60e01b815260040160405180910390fd5b6000918252600e6020526040909120805460ff1916911515919091179055565b6107aa83838360405180602001604052806000815250610d04565b61098d611218565b610995611134565b47806109cd5760405162461bcd60e51b81526020600482015260076024820152664e6f206665657360c81b6044820152606401610709565b60006109e16006546001600160a01b031690565b6001600160a01b03168260405160006040518083038185875af1925050503d8060008114610a2b576040519150601f19603f3d011682016040523d82523d6000602084013e610a30565b606091505b5050905080610a755760405162461bcd60e51b815260206004820152601160248201527015da5d1a191c985dd85b0819985a5b1959607a1b6044820152606401610709565b5050610a816001600755565b565b610a8b611218565b6009610a978282611b9a565b5050565b6000818152600260205260408120546001600160a01b0316806105d65760405162461bcd60e51b8152602060048201526018602482015277115490cdcc8c4e881a5b9d985b1a59081d1bdad95b88125160421b6044820152606401610709565b600c6020526000908152604090208054610b1490611a9e565b80601f0160208091040260200160405190810160405280929190818152602001828054610b4090611a9e565b8015610b8d5780601f10610b6257610100808354040283529160200191610b8d565b820191906000526020600020905b815481529060010190602001808311610b7057829003601f168201915b505050505081565b60006001600160a01b038216610bff5760405162461bcd60e51b815260206004820152602960248201527f4552433732313a2061646472657373207a65726f206973206e6f7420612076616044820152683634b21037bbb732b960b91b6064820152608401610709565b506001600160a01b031660009081526003602052604090205490565b610c23611218565b610a816000611272565b6060600180546105eb90611a9e565b600a546001600160a01b03163314610c675760405163c603835b60e01b815260040160405180910390fd5b6000818152600260205260409020546001600160a01b0316610cc25760405162461bcd60e51b8152602060048201526014602482015273151bdad95b88191bd95cc81b9bdd08195e1a5cdd60621b6044820152606401610709565b60405181907f954418ec0dd837da4bff86e188ae67c633855b7e564c799e1cc6992ee2333de290600090a2610cf6816112c4565b50565b610a97338383611367565b610d0e3383610f44565b610d2a5760405162461bcd60e51b815260040161070990611ad8565b610d3684848484611435565b50505050565b600b8181548110610d4c57600080fd5b906000526020600020016000915090508054610b1490611a9e565b6000818152600260205260409020546060906001600160a01b0316610dc55760405162461bcd60e51b8152602060048201526014602482015273151bdad95b88191bd95cc81b9bdd08195e1a5cdd60621b6044820152606401610709565b6009600c6000848152602001908152602001600020604051602001610deb929190611ccd565b6040516020818303038152906040529050919050565b610e09611218565b6001600160a01b038116610e6e5760405162461bcd60e51b815260206004820152602660248201527f4f776e61626c653a206e6577206f776e657220697320746865207a65726f206160448201526564647265737360d01b6064820152608401610709565b610cf681611272565b6000818152600260205260409020546001600160a01b0316610cf65760405162461bcd60e51b8152602060048201526018602482015277115490cdcc8c4e881a5b9d985b1a59081d1bdad95b88125160421b6044820152606401610709565b600081815260046020526040902080546001600160a01b0319166001600160a01b0384169081179091558190610f0b82610a9b565b6001600160a01b03167f8c5be1e5ebec7d5bd14f71427d1e84f3dd0314c0f7b2291e5b200ac8c7c3b92560405160405180910390a45050565b600080610f5083610a9b565b9050806001600160a01b0316846001600160a01b03161480610f9757506001600160a01b0380821660009081526005602090815260408083209388168352929052205460ff165b80610fbb5750836001600160a01b0316610fb08461066e565b6001600160a01b0316145b949350505050565b826001600160a01b0316610fd682610a9b565b6001600160a01b031614610ffc5760405162461bcd60e51b815260040161070990611cf8565b6001600160a01b03821661105e5760405162461bcd60e51b8152602060048201526024808201527f4552433732313a207472616e7366657220746f20746865207a65726f206164646044820152637265737360e01b6064820152608401610709565b61106b8383836001611468565b826001600160a01b031661107e82610a9b565b6001600160a01b0316146110a45760405162461bcd60e51b815260040161070990611cf8565b600081815260046020908152604080832080546001600160a01b03199081169091556001600160a01b0387811680865260038552838620805460001901905590871680865283862080546001019055868652600290945282852080549092168417909155905184937fddf252ad1be2c89b69c2b068fc378daa952ba7f163c4a11628f55a4df523b3ef91a4505050565b6002600754036111865760405162461bcd60e51b815260206004820152601f60248201527f5265656e7472616e637947756172643a207265656e7472616e742063616c6c006044820152606401610709565b6002600755565b6000805b600b548110156111f5578280519060200120600b82815481106111b6576111b6611d3d565b906000526020600020016040516111cd9190611d53565b6040518091039020036111e35750600192915050565b806111ed81611b25565b915050611191565b50600092915050565b610a978282604051806020016040528060008152506114ac565b6006546001600160a01b03163314610a815760405162461bcd60e51b815260206004820181905260248201527f4f776e61626c653a2063616c6c6572206973206e6f7420746865206f776e65726044820152606401610709565b600680546001600160a01b038381166001600160a01b0319831681179093556040519116919082907f8be0079c531659141344cd1fd0a4f28419497f9722a3daafe3b4186f6b6457e090600090a35050565b60006112cf82610a9b565b90506112df816000846001611468565b6112e882610a9b565b600083815260046020908152604080832080546001600160a01b03199081169091556001600160a01b0385168085526003845282852080546000190190558785526002909352818420805490911690555192935084927fddf252ad1be2c89b69c2b068fc378daa952ba7f163c4a11628f55a4df523b3ef908390a45050565b816001600160a01b0316836001600160a01b0316036113c85760405162461bcd60e51b815260206004820152601960248201527f4552433732313a20617070726f766520746f2063616c6c6572000000000000006044820152606401610709565b6001600160a01b03838116600081815260056020908152604080832094871680845294825291829020805460ff191686151590811790915591519182527f17307eab39ab6107e8899845ad3d59bd9653f200f220920489ca2b5937696c31910160405180910390a3505050565b611440848484610fc3565b61144c848484846114df565b610d365760405162461bcd60e51b815260040161070990611d5f565b6001600160a01b0384161580159061148e57506000828152600e602052604090205460ff165b15610d365760405163fde4286d60e01b815260040160405180910390fd5b6114b683836115e0565b6114c360008484846114df565b6107aa5760405162461bcd60e51b815260040161070990611d5f565b60006001600160a01b0384163b156115d557604051630a85bd0160e11b81526001600160a01b0385169063150b7a0290611523903390899088908890600401611db1565b6020604051808303816000875af192505050801561155e575060408051601f3d908101601f1916820190925261155b91810190611dee565b60015b6115bb573d80801561158c576040519150601f19603f3d011682016040523d82523d6000602084013e611591565b606091505b5080516000036115b35760405162461bcd60e51b815260040161070990611d5f565b805181602001fd5b6001600160e01b031916630a85bd0160e11b149050610fbb565b506001949350505050565b6001600160a01b0382166116365760405162461bcd60e51b815260206004820181905260248201527f4552433732313a206d696e7420746f20746865207a65726f20616464726573736044820152606401610709565b6000818152600260205260409020546001600160a01b03161561169b5760405162461bcd60e51b815260206004820152601c60248201527f4552433732313a20746f6b656e20616c7265616479206d696e746564000000006044820152606401610709565b6116a9600083836001611468565b6000818152600260205260409020546001600160a01b03161561170e5760405162461bcd60e51b815260206004820152601c60248201527f4552433732313a20746f6b656e20616c7265616479206d696e746564000000006044820152606401610709565b6001600160a01b038216600081815260036020908152604080832080546001019055848352600290915280822080546001600160a01b0319168417905551839291907fddf252ad1be2c89b69c2b068fc378daa952ba7f163c4a11628f55a4df523b3ef908290a45050565b6001600160e01b031981168114610cf657600080fd5b6000602082840312156117a157600080fd5b81356117ac81611779565b9392505050565b6000815180845260005b818110156117d9576020818501810151868301820152016117bd565b506000602082860101526020601f19601f83011685010191505092915050565b6020815260006117ac60208301846117b3565b60006020828403121561181e57600080fd5b5035919050565b80356001600160a01b03811681146108c857600080fd5b6000806040838503121561184f57600080fd5b61185883611825565b946020939093013593505050565b60008060006060848603121561187b57600080fd5b61188484611825565b925061189260208501611825565b9150604084013590509250925092565b634e487b7160e01b600052604160045260246000fd5b600067ffffffffffffffff808411156118d3576118d36118a2565b604051601f8501601f19908116603f011681019082821181831017156118fb576118fb6118a2565b8160405280935085815286868601111561191457600080fd5b858560208301376000602087830101525050509392505050565b60006020828403121561194057600080fd5b813567ffffffffffffffff81111561195757600080fd5b8201601f8101841361196857600080fd5b610fbb848235602084016118b8565b60006020828403121561198957600080fd5b6117ac82611825565b803580151581146108c857600080fd5b600080604083850312156119b557600080fd5b823591506119c560208401611992565b90509250929050565b600080604083850312156119e157600080fd5b6119ea83611825565b91506119c560208401611992565b60008060008060808587031215611a0e57600080fd5b611a1785611825565b9350611a2560208601611825565b925060408501359150606085013567ffffffffffffffff811115611a4857600080fd5b8501601f81018713611a5957600080fd5b611a68878235602084016118b8565b91505092959194509250565b60008060408385031215611a8757600080fd5b611a9083611825565b91506119c560208401611825565b600181811c90821680611ab257607f821691505b602082108103611ad257634e487b7160e01b600052602260045260246000fd5b50919050565b6020808252602d908201527f4552433732313a2063616c6c6572206973206e6f7420746f6b656e206f776e6560408201526c1c881bdc88185c1c1c9bdd9959609a1b606082015260800190565b600060018201611b4557634e487b7160e01b600052601160045260246000fd5b5060010190565b601f8211156107aa57600081815260208120601f850160051c81016020861015611b735750805b601f850160051c820191505b81811015611b9257828155600101611b7f565b505050505050565b815167ffffffffffffffff811115611bb457611bb46118a2565b611bc881611bc28454611a9e565b84611b4c565b602080601f831160018114611bfd5760008415611be55750858301515b600019600386901b1c1916600185901b178555611b92565b600085815260208120601f198616915b82811015611c2c57888601518255948401946001909101908401611c0d565b5085821015611c4a5787850151600019600388901b60f8161c191681555b5050505050600190811b01905550565b60008154611c6781611a9e565b60018281168015611c7f5760018114611c9457611cc3565b60ff1984168752821515830287019450611cc3565b8560005260208060002060005b85811015611cba5781548a820152908401908201611ca1565b50505082870194505b5050505092915050565b6000611ce2611cdc8386611c5a565b84611c5a565b64173539b7b760d91b8152600501949350505050565b60208082526025908201527f4552433732313a207472616e736665722066726f6d20696e636f72726563742060408201526437bbb732b960d91b606082015260800190565b634e487b7160e01b600052603260045260246000fd5b60006117ac8284611c5a565b60208082526032908201527f4552433732313a207472616e7366657220746f206e6f6e20455243373231526560408201527131b2b4bb32b91034b6b83632b6b2b73a32b960711b606082015260800190565b6001600160a01b0385811682528416602082015260408101839052608060608201819052600090611de4908301846117b3565b9695505050505050565b600060208284031215611e0057600080fd5b81516117ac8161177956fea2646970667358221220ed5d7f85a0feb99336ff917f8359bf29120d4997abb31a1362898e3ec38a67e064736f6c63430008140033",
  "linkReferences": {},
  "deployedLinkReferences": {}
}