{
  "_format": "hh-sol-artifact-1",
  "contractName": "GumbuoPresale",
  "sourceName": "contracts/GumbuoPresale.sol",
  "abi": [
    {
      "inputs": [],
      "name": "buy",
      "outputs": [],
      "stateMutability": "payable",
      "type": "function"
    },
    {
      "inputs": [],
      "name": "gmbPerEth",
      "outputs": [
        {
          "internalType": "uint256",
          "name": "",
          "type": "uint256"
        }
      ],
      "stateMutability": "view",
      "type": "function"
    }
  ],
  "bytecode": "0x6080604052627ea5e060005534801561001757600080fd5b50610149806100276000396000f3fe6080604052600436106100295760003560e01c8063a6f2ae3a1461002e578063b5ce277c14610038575b600080fd5b610036610060565b005b34801561004457600080fd5b5061004e60005481565b60405190815260200160405180910390f35b6000341161009f5760405162461bcd60e51b81526020600482015260086024820152670a6cadcc8408aa8960c31b604482015260640160405180910390fd5b6000670de0b6b3a7640000600054346100b891906100c6565b6100c291906100f1565b5050565b80820281158282048414176100eb57634e487b7160e01b600052601160045260246000fd5b92915050565b60008261010e57634e487b7160e01b600052601260045260246000fd5b50049056fea2646970667358221220e548218daca29e78225ebfba563ffb3db6c797e50db74637bcf256dd498662aa64736f6c63430008140033",
  "linkReferences": {},
  "deployedLinkReferences": {}
}